:100000000C94F2000C941A010C941A010C941A012D
:100010000C941A010C941A010C941A010C941A01F4
:100020000C941A010C941A010C9444060C94B60614
:100030000C941A010C941A010C941A010C941A01D4
:100040000C941A010C941A010C941A010C941A01C4
:100050000C941A010C941A010C941A010C94FA05D0
:100060000C941A010C941A010C941A010C941A01A4
:100070000C941A010C941A010C941A010C941A0194
:100080000C941A010C941A010C941A010C941A0184
:100090000C941A010C941A010C941A010C941A0174
:1000A0000C941A010C941A010C941A01DC01DF0162
:1000B000CE01D201D601000200020002E301E701F5
:1000C000EB01F101F5010002FB013A023F0244029B
:1000D0004E025802A202A202A20262026C02760240
:1000E00080028D02A2029502080B000202020100AA
:1000F000090400000102020000052400100105248B
:1001000001010104240206052406000107058103FC
:1001100010004009040100020A0000000705020265
:100120004000000705830240000004030904120197
:100130000002EF0201404123368000010102030169
:1001400041726475696E6F204C4C43004172647556
:10015000696E6F204C656F6E6172646F0000000005
:100160000200090F0000030401000C000000000061
:100170000000000000000000000000000706050469
:100180000100080A0B0C0D090000000025002800E2
:100190002B002E00310000000000240027002A0060
:1001A0002D003000040404040403040502020202CA
:1001B0000403020202020606060606060404020200
:1001C00002040404080201104080401020408040D6
:1001D000800802040180402010020110801020409D
:1001E0004020880A11241FBECFEFDAE0DEBFCDBF6A
:1001F00011E0A0E0B1E0E8E9F5E102C005900D9260
:10020000A834B107D9F721E0A8E4B1E001C01D92FC
:10021000A93BB207E1F710E0C2EFD0E004C021979C
:10022000FE010E94BF0AC13FD107C9F70E94E6083C
:100230000C94CA0A0C94000090E0FC01ED53FE4FB0
:100240002491FC01EC55FE4F8491882399F090E0B5
:10025000880F991FFC01EA56FE4FA591B491FC014D
:10026000E857FE4F859194918FB7F894EC91E22B6B
:10027000EC938FBF0895ECE7F1E0E49120917B00CF
:10028000E3FB882780F990E035E0880F991F3A95C5
:10029000E1F7922F9F7D892B80937B00E770E064CC
:1002A000E0937C0080917A00806480937A00809152
:1002B0007A0086FDFCCF809178002091790090E053
:1002C000922B0895FC0180916801811103C08FEF8A
:1002D0009FEF08959FB7F89482E08093E900209102
:1002E000F20030E01216130614F421E030E021157C
:1002F000310559F0289884E6809367018091F100D8
:1003000080838091F200882319F09FBFC90108956E
:100310008BE68093E800F9CF2FB7F89483E08093C1
:10032000E9009091E800892F807295FF04C09091B8
:10033000F20080E4891B2FBF089580915F01811135
:100340000DC082E080935B0184E080935C01109299
:100350005E0110925D0181E080935F018BE591E089
:100360000895362F90E0FC01E35AFE4F4491FC01C2
:10037000ED53FE4F2491FC01EC55FE4F84918823F0
:1003800009F451C04423E1F150E0FA013197EF3014
:10039000F105B0F5EA5AFF4F0C94BF0A9091800026
:1003A0009F7707C0909180009F7D03C0909180004F
:1003B000977F9093800024C094B59F7702C094B536
:1003C0009F7D94BD1DC0909190009F7707C0909134
:1003D00090009F7D03C090919000977F9093900034
:1003E0000FC09091C0009F7703C09091C0009F7D87
:1003F0009093C00005C09091C200977F9093C20077
:10040000E82FF0E0EE0FFF1FE857FE4FA591B491E3
:100410008FB7F894EC91311103C020952E2301C0C1
:100420002E2B2C938FBF08951F93CF93DF93182FFC
:10043000EB010E941C01209711F460E004C0CF3F43
:10044000D10539F461E0812FDF91CF911F910C9498
:10045000B101E12FF0E0E35AFE4FE4914E2F50E05E
:10046000FA013197EF30F10508F06CC0EB59FF4FFE
:100470000C94BF0A84B5806884BDC7BD68C084B5CC
:10048000806284BDC8BD63C0809180008068809315
:100490008000D0938900C093880059C0809180006B
:1004A000806280938000D0938B00C0938A004FC0FD
:1004B00080918000886080938000D0938D00C093ED
:1004C0008C0045C080919000806880939000D0930C
:1004D0009900C09398003BC0809190008062809307
:1004E0009000D0939B00C0939A0031C080919000FF
:1004F000886080939000D0939D00C0939C0027C09B
:100500008091C00080688093C0008091C0008F7B84
:100510008093C000C093CF001AC08091C000806259
:100520008093C000C093D00012C08091C200886048
:100530008093C2008091C2008B7F8093C200C093E1
:10054000D20005C0C038D1050CF07CCF76CFDF914A
:10055000CF911F91089566E97FEF85E00E94140214
:1005600061E084E00E94B10166E97FEF86E00E94CD
:10057000140261E087E00C94B10166E97FEF85E049
:100580000E94140260E084E00E94B10166E97FEFFE
:1005900086E00E94140260E087E00C94B10166E9F5
:1005A0007FEF85E00E94140260E087E00E94B101C5
:1005B00066E97FEF86E00E94140261E084E00C941B
:1005C000B10166E97FEF85E00E94140261E087E0F7
:1005D0000E94B10166E97FEF86E00E94140260E0AC
:1005E00084E00C94B1013FB7F89480915701909149
:1005F0005801A0915901B0915A0126B5A89B05C098
:100600002F3F19F00196A11DB11D3FBFBA2FA92F91
:10061000982F8827820F911DA11DB11DBC01CD010E
:1006200042E0660F771F881F991F4A95D1F70895FA
:100630008F929F92AF92BF92CF92DF92EF92FF92F2
:100640006B017C010E94F3024B015C01C114D104D7
:10065000E104F104F1F00E94F302DC01CB018819FE
:100660009909AA09BB09883E9340A105B10570F319
:1006700021E0C21AD108E108F10888EE880E83E073
:10068000981EA11CB11CC114D104E104F10419F796
:10069000DDCFFF90EF90DF90CF90BF90AF909F9015
:1006A0008F90089540914A0150914B01209148014B
:1006B0003091490142175307B4F49091E8009570C6
:1006C000E1F39091E80092FD19C08093F1008091D0
:1006D0004A0190914B0101968F739927892B19F448
:1006E0008EEF8093E80080914A0190914B01019632
:1006F00090934B0180934A0181E0089580E0089532
:10070000CF92DF92EF92FF920F931F93CF93DF93DD
:100710001F92CDB7DEB7182F062FE42E862F880F35
:100720008E5F99830E94520383E00E945203F12E50
:10073000C12E9981D92E8C2D8F19801798F4F6012E
:10074000E7FE02C0849101C080810E945203182FED
:1007500080E00E9452038123FFEFCF1ADF0A81114C
:10076000EACF01C081E00F90DF91CF911F910F91EF
:10077000FF90EF90DF90CF900895DF92EF92FF927D
:100780000F931F93CF93DF93D82E8A017B01E40E42
:10079000F51EEB01CE15DF0571F0D7FE03C0FE019B
:1007A000849101C088810E94520321968111F2CF69
:1007B0008FEF9FEF01C0C801DF91CF911F910F9183
:1007C000FF90EF90DF9008950F931F93CF93DF93E7
:1007D0001F92CDB7DEB782E0898342E450E068EE35
:1007E00070E080E80E94BD030E949D01DC0112962A
:1007F0000D911C9113970115110569F0D801ED9128
:10080000FC910280F381E02DBE016F5F7F4FC80134
:10081000099597FF07C089810F90DF91CF911F91B4
:100820000F910895F80100851185E5CF615030F0F2
:100830002091F100FC0120830196F8CF289884E6EE
:10084000809367010895CF92DF92EF92FF920F930A
:100850001F93CF93DF936C017A018B01C0E0D0E04E
:10086000CE15DF0589F0D8016D918D01D601ED918E
:10087000FC910190F081E02DC6010995892B11F4BE
:100880007E0102C02196ECCFC701DF91CF911F916D
:100890000F91FF90EF90DF90CF9008958F929F92ED
:1008A000AF92BF92CF92DF92EF92FF920F931F937E
:1008B000CF93DF935C016B017A0180910B01882358
:1008C00009F45BC080916801882309F456C08091C7
:1008D0004E0180FF05C08091E00082608093E000BF
:1008E000E70110E00AEF83E0882E9AE3992E209723
:1008F000D9F10E948C0181110AC0015009F43DC058
:1009000061E070E080E090E00E941803F0CF282FB3
:1009100030E0C217D3070CF48C2F4FB7F8948092B5
:10092000E9009091E80095FF1DC0282F30E0C21B20
:10093000D30BF601982F915020F081918093F10014
:10094000FACFC20ED31E112319F09092E80009C00D
:100950008091E80085FD06C09092E80011E02097A4
:1009600009F010E04FBFC3CF1111C3CF5D9884E6EB
:1009700080934C011E141F0444F081E090E0F501C7
:100980009383828380E090E001C0C701DF91CF9123
:100990001F910F91FF90EF90DF90CF90BF90AF909D
:1009A0009F908F900895CF93DF931F92CDB7DEB7BE
:1009B0006983DC01ED91FC910280F381E02D41E03F
:1009C00050E0BE016F5F7F4F09950F90DF91CF918F
:1009D000089583E08093E9008091F200882319F064
:1009E0008AE38093E80008950E948C0190E00895C6
:1009F000CF93DF931F92CDB7DEB7FC018485958539
:100A000097FD05C02FEF3FEF358724870BC0CE0140
:100A100001960E946201019719F4898190E002C059
:100A20008FEF9FEF0F90DF91CF9108950F931F935A
:100A3000CF93DF931F92CDB7DEB78C01FC01848585
:100A4000958597FF0EC0CE0101960E946201019725
:100A500019F4298130E002C02FEF3FEFF80135870C
:100A60002487F801848595850F90DF91CF911F91A0
:100A70000F910895FC018485958597FD0BC09FB764
:100A8000F89482E08093E9008091F2009FBF90E0AB
:100A9000019608959FB7F89482E08093E9008091D1
:100AA000F2009FBF90E00895089580E090E00895DF
:100AB00060E085E00E94B10160E086E00C94B10145
:100AC000BC01009791F0FC0101900020E9F73197FB
:100AD000AF01481B590BE0916901F0916A01028056
:100AE000F381E02D89E691E0099480E090E008959B
:100AF0008F929F92AF92BF920F931F93CF93DF93EA
:100B0000CDB7DEB7A1970FB6F894DEBF0FBECDBF4D
:100B100019A2423008F44AE08E010F5D1F4F842E67
:100B2000912CA12CB12CA50194010E949D0AE62FC5
:100B3000B901CA0101501109EA3014F4E05D01C0A5
:100B4000E95CD801EC93232B242B252B61F7C801FA
:100B50000E946005A1960FB6F894DEBF0FBECDBF10
:100B6000DF91CF911F910F91BF90AF909F908F9089
:100B70000895CF92DF92EF92FF92CF93DF936B01B4
:100B80007C01E0916901F0916A010190F081E02D12
:100B90006DE289E691E00995EC0166277727CB01A4
:100BA0006C197D098E099F094AE00E9478058C0F17
:100BB0009D1FDF91CF91FF90EF90DF90CF90089530
:100BC000CF93DF93BC01990F880B990B97FF03C05C
:100BD0000E94B90503C04AE00E947805EC0189E251
:100BE00091E00E9460058C0F9D1FDF91CF910895C9
:100BF0000E94C50A1F920F920FB60F9211242F93D5
:100C00003F938F939F93AF93BF93809153019091A4
:100C10005401A0915501B09156013091520123E049
:100C2000230F2D3720F40196A11DB11D05C026E824
:100C3000230F0296A11DB11D2093520180935301F1
:100C400090935401A0935501B093560180915701A0
:100C500090915801A0915901B0915A010196A11D9E
:100C6000B11D8093570190935801A0935901B093FF
:100C70005A01BF91AF919F918F913F912F910F900A
:100C80000FBE0F901F9018951F920F920FB60F92E4
:100C900011248F939F938091E1009091E100937FC5
:100CA0009093E10083FF0FC01092E90091E09093D0
:100CB000EB001092EC0092E39093ED00109268012B
:100CC00098E09093F00082FF20C093E09093E900B9
:100CD0009091F200992319F09AE39093E800909193
:100CE0004C01992339F090914C01915090934C0113
:100CF000992389F190916701992339F090916701C7
:100D0000915090936701992341F184FF10C0809125
:100D1000E2008E7E81608093E2008091E1008F7E10
:100D20008093E10080914E018E7E806111C080FF32
:100D300016C08091E2008E7E80618093E2008091F7
:100D4000E1008E7E8093E10080914E018E7E816075
:100D500080934E0104C05D9ACDCF289AD6CF9F9143
:100D60008F910F900FBE0F901F9018951F920F92AA
:100D70000FB60F921124CF92DF92EF92FF920F9352
:100D80001F932F933F934F935F936F937F938F9313
:100D90009F93AF93BF93EF93FF93CF93DF93CDB721
:100DA000DEB76C97DEBFCDBF1092E9008091E800FE
:100DB00083FFEDC168E0CE0145960E94160482EFE4
:100DC0008093E8008D8987FF05C09091E80090FF2F
:100DD000FCCF03C09EEF9093E800982F907609F027
:100DE000C6C09E892F89188D91110CC0803829F4B6
:100DF00080914F018093F10002C01092F100109297
:100E0000F10048C1422F50E0512B913051F4811133
:100E100041C14130510509F03DC180914F018D7FA5
:100E20000BC0933061F4811135C14130510509F097
:100E300031C180914F01826080934F012BC1953069
:100E400041F48091E80080FFFCCF20682093E3000C
:100E500021C1963009F05FC0EB8CFC8C1092E90048
:100E600010924B0110924A01123091F510924901F3
:100E7000109248010E94E40399E0BE016F5F7F4F2A
:100E8000DB01E92F1D92EA95E9F799831A8391E036
:100E90009E8390EA98879AEF998720914A01309132
:100EA0004B01275F3F4F3C832B838D831092E900DA
:100EB00010924B0110924A01F0924901E0924801D0
:100EC00049E050E080E00E94BD030E94E403E2C0DC
:100ED000F0924901E09248010E949D01DC011296C6
:100EE000ED90FC901397E114F10409F4C0C0D70110
:100EF000ED91FC910480F581E02DBE016B5E7F4F8A
:100F0000C7010995009719F00CF0C4C0C7C0F701DC
:100F1000E084F184E8CF973009F4C0C0983021F420
:100F200081E08093F100B6C0993009F0B3C08370BE
:100F300009F0B4C0E3E2F1E081E021E036E3908122
:100F4000992361F08093E9002093EB0091919093B5
:100F5000EC003093ED008F5F873089F78EE7809348
:100F6000EA001092EA008F898093680193C08B8D0C
:100F70009C8D1092E90010924B0110924A019093BF
:100F8000490180934801898D811156C08E899D89C0
:100F9000913A59F4813209F081C047E050E064E0B1
:100FA00071E080E00E94BD0375C0913209F076C007
:100FB000833289F4888D90E0982F88272F89822B9F
:100FC000A0E0B0E08093000190930101A0930201A2
:100FD000B09303015FC0803269F48091E80082FF22
:100FE000FCCF67E084E091E00E9416048BEF8093D1
:100FF000E80006C0823209F04DC08F8980930B0152
:1010000080914D01882319F0EEEFFAE002C0E0E094
:10101000F8E08091040190910501A0910601B09142
:101020000701803B9440A105B10509F07BC0809188
:101030000B0180FF93C076C00E949D01DC011296D7
:101040000D911C9113970115110541F1D801ED91F6
:10105000FC910190F081E02DBE016B5E7F4FC801D5
:101060000995811117C0F80100851185ECCF113069
:1010700009F44EC0133091F48F89882309F445C0D8
:10108000823081F440E860E18CE491E00E948003CA
:10109000882321F08EEF8093E80079C081E280936D
:1010A000EB0075C0813029F440E86BE080E491E00A
:1010B000EDCF833099F70E949D01DC011296ED90EF
:1010C000FC9013978E010F5F1F4F6801E114F1042C
:1010D00079F0D701ED91FC910680F781E02DB80100
:1010E000C7010995080F111DF701E084F184EECFC7
:1010F000D8011C92F60101900020E9F73197BF0159
:101100006C197D0940E0C601C1CF6AE271E002C0FE
:101110006EE271E06115710509F2FB01449150E046
:1011200080E840CF0FB6F894A89580916000886160
:1011300080936000109260000FBEA895EE3F2AE0F9
:10114000F20739F08091FE0A9091FF0A9183808323
:10115000A1CF1092FF0A1092FE0A9CCFEE3F8AE0C8
:10116000F80731F0808191819093FF0A8093FE0A05
:1011700087E797E7918380839BE088E10FB6F89437
:10118000A895809360000FBE9093600083CF6C960B
:101190000FB6F894DEBF0FBECDBFDF91CF91FF91A8
:1011A000EF91BF91AF919F918F917F916F915F91DF
:1011B0004F913F912F911F910F91FF90EF90DF90F2
:1011C000CF900F900FBE0F901F901895789484B514
:1011D000826084BD84B5816084BD85B5826085BD33
:1011E00085B5816085BD80916E00816080936E00C1
:1011F00010928100809181008260809381008091B3
:101200008100816080938100809180008160809363
:101210008000809191008260809391008091910084
:101220008160809391008091900081608093900014
:101230008091C10084608093C1008091C100826070
:101240008093C1008091C10081608093C100809132
:10125000C30081608093C3008091C000826080934E
:10126000C0008091C20081608093C20080917A00AA
:10127000846080937A0080917A00826080937A0003
:1012800080917A00816080937A0080917A008068F2
:1012900080937A001092680110924F0110924E01D3
:1012A0008091D70081608093D70080EA8093D80036
:1012B00089B5806189BD89B5826089BD09B400FEA8
:1012C000FDCF61E070E080E090E00E941803809123
:1012D000D8008F7C80618093D8008091E000807F6F
:1012E0008093E0008091E1008E7E8093E1008DE0AC
:1012F0008093E200559A209AEEEFFFE78591949152
:101300008B3F9C4D19F481E080934D018DE00E944C
:101310001C0184E00E941C0185E00E941C0186E003
:101320000E941C0187E00E941C018FEF9FEF9093A9
:101330007601809375018CE291E00E94600589E25C
:1013400091E00E946005C0E0D0E00FEF1FEF89E65A
:1013500091E00E943A05892B51F189E691E00E94C3
:10136000F8048F3F11F1833789F03CF4813689F01E
:101370008436E9F40E94E1021AC08837B1F08A3756
:1013800059F08737A1F40E94AB0211C00E94BD0240
:101390000EC00E94CF020BC081E491E00E94600564
:1013A00089E291E00E94600502C00E9458050E94F7
:1013B0003B017C01909351018093500161E08DE0ED
:1013C0000E94B1014EE1E416F104B0F086E9E8169E
:1013D000F104A8F028E6E21621E0F20698F047E1D1
:1013E000E41642E0F40688F088EFE81682E0F8069A
:1013F00078F484E090E00EC080E090E00BC081E0E3
:1014000090E008C082E090E005C083E090E002C078
:101410008FEF9FEF90930F0180930E0120910C01AD
:1014200030910D018217930709F461C062E370E007
:1014300080E090E00E9418030E943B0190935101CC
:10144000809350018E31910590F08639910590F08E
:10145000883621E0920788F0873142E0940780F0D7
:10146000883F22E0920778F424E030E00EC020E0CC
:1014700030E00BC021E030E008C022E030E005C0E1
:1014800023E030E002C02FEF3FEF30930F012093B5
:101490000E012F3F3F4F39F10E94E00580910E0170
:1014A00090910F010E94E00580910E0190910F0133
:1014B0008230910599F03CF4009769F0019799F416
:1014C0000E94CF0210C08330910559F0049759F45F
:1014D0000E94580508C00E94AB0205C00E94BD02D0
:1014E00002C00E94E10210930D0100930C0160E024
:1014F0008DE00E94B1014AE064E773E780E090E08C
:101500000E947805209709F422CF0E9400001FCF87
:10151000E9E6F1E01382128288EE93E0A0E0B0E009
:1015200084839583A683B78384E191E0918380834C
:101530008FEF9FEF958784870895A1E21A2EAA1B4B
:10154000BB1BFD010DC0AA1FBB1FEE1FFF1FA21773
:10155000B307E407F50720F0A21BB30BE40BF50B70
:10156000661F771F881F991F1A9469F760957095F9
:10157000809590959B01AC01BD01CF010895EE0FC0
:10158000FF1F0590F491E02D099481E090E0F8941C
:081590000C94CA0AF894FFCF85
:10159800FFFFFFFF00E1000000000000FFFFFFFF6A
:1015A80000000000D3044E04F404E9043A05F804EA
:1015B800160500C180810000000D0A0052756E20DA
:1015C8006B6579626F61726420636F6E74726F6CA1
:0815D8000048656C6C6F000017
:00000001FF
